{
  "_format": "hh-sol-artifact-1",
  "contractName": "FileMinter",
  "sourceName": "contracts/FileMinter.sol",
  "abi": [
    {
      "anonymous": false,
      "inputs": [
        {
          "indexed": false,
          "internalType": "address",
          "name": "walletAddress",
          "type": "address"
        },
        {
          "indexed": false,
          "internalType": "bytes32",
          "name": "fileHash",
          "type": "bytes32"
        }
      ],
      "name": "mintSuccessful",
      "type": "event"
    },
    {
      "inputs": [
        {
          "internalType": "address",
          "name": "walletAddress",
          "type": "address"
        },
        {
          "internalType": "string",
          "name": "fileHashString",
          "type": "string"
        }
      ],
      "name": "mintFile",
      "outputs": [],
      "stateMutability": "nonpayable",
      "type": "function"
    },
    {
      "inputs": [
        {
          "internalType": "address",
          "name": "walletAddress",
          "type": "address"
        }
      ],
      "name": "myMintFiles",
      "outputs": [
        {
          "internalType": "bytes32[]",
          "name": "",
          "type": "bytes32[]"
        }
      ],
      "stateMutability": "view",
      "type": "function"
    }
  ],
  "bytecode": "0x608060405234801561001057600080fd5b50610870806100206000396000f3fe608060405234801561001057600080fd5b50600436106100365760003560e01c8063076662381461003b578063b1f7885d1461006b575b600080fd5b61005560048036038101906100509190610419565b610087565b604051610062919061050e565b60405180910390f35b61008560048036038101906100809190610676565b610124565b005b60606000600160008473ffffffffffffffffffffffffffffffffffffffff1673ffffffffffffffffffffffffffffffffffffffff16815260200190815260200160002090508080548060200260200160405190810160405280929190818152602001828054801561011757602002820191906000526020600020905b815481526020019060010190808311610103575b5050505050915050919050565b6000816101309061070f565b905060008082815260200190815260200160002060000160149054906101000a900460ff1615610195576040517f08c379a000000000000000000000000000000000000000000000000000000000815260040161018c906107d3565b60405180910390fd5b60405180604001604052808473ffffffffffffffffffffffffffffffffffffffff1681526020016001151581525060008083815260200190815260200160002060008201518160000160006101000a81548173ffffffffffffffffffffffffffffffffffffffff021916908373ffffffffffffffffffffffffffffffffffffffff16021790555060208201518160000160146101000a81548160ff0219169083151502179055509050506000600160008573ffffffffffffffffffffffffffffffffffffffff1673ffffffffffffffffffffffffffffffffffffffff16815260200190815260200160002090508082908060018154018082558091505060019003906000526020600020016000909190919091505580600160008673ffffffffffffffffffffffffffffffffffffffff1673ffffffffffffffffffffffffffffffffffffffff1681526020019081526020016000209080546102f8929190610338565b507f058353ccf7c2389d699817bc9ea3d39cd8e61983344dc45ad11bbe97eeb7e4b2848360405161032a929190610811565b60405180910390a150505050565b8280548282559060005260206000209081019282156103795760005260206000209182015b8281111561037857825482559160010191906001019061035d565b5b509050610386919061038a565b5090565b5b808211156103a357600081600090555060010161038b565b5090565b6000604051905090565b600080fd5b600080fd5b600073ffffffffffffffffffffffffffffffffffffffff82169050919050565b60006103e6826103bb565b9050919050565b6103f6816103db565b811461040157600080fd5b50565b600081359050610413816103ed565b92915050565b60006020828403121561042f5761042e6103b1565b5b600061043d84828501610404565b91505092915050565b600081519050919050565b600082825260208201905092915050565b6000819050602082019050919050565b6000819050919050565b61048581610472565b82525050565b6000610497838361047c565b60208301905092915050565b6000602082019050919050565b60006104bb82610446565b6104c58185610451565b93506104d083610462565b8060005b838110156105015781516104e8888261048b565b97506104f3836104a3565b9250506001810190506104d4565b5085935050505092915050565b6000602082019050818103600083015261052881846104b0565b905092915050565b600080fd5b600080fd5b6000601f19601f8301169050919050565b7f4e487b7100000000000000000000000000000000000000000000000000000000600052604160045260246000fd5b6105838261053a565b810181811067ffffffffffffffff821117156105a2576105a161054b565b5b80604052505050565b60006105b56103a7565b90506105c1828261057a565b919050565b600067ffffffffffffffff8211156105e1576105e061054b565b5b6105ea8261053a565b9050602081019050919050565b82818337600083830152505050565b6000610619610614846105c6565b6105ab565b90508281526020810184848401111561063557610634610535565b5b6106408482856105f7565b509392505050565b600082601f83011261065d5761065c610530565b5b813561066d848260208601610606565b91505092915050565b6000806040838503121561068d5761068c6103b1565b5b600061069b85828601610404565b925050602083013567ffffffffffffffff8111156106bc576106bb6103b6565b5b6106c885828601610648565b9150509250929050565b600081519050919050565b6000819050602082019050919050565b60006106f98251610472565b80915050919050565b600082821b905092915050565b600061071a826106d2565b82610724846106dd565b905061072f816106ed565b9250602082101561076f5761076a7fffffffffffffffffffffffffffffffffffffffffffffffffffffffffffffffff83602003600802610702565b831692505b5050919050565b600082825260208201905092915050565b7f46696c6520416c7265616479204d696e74656420746f20536f6d656f6e650000600082015250565b60006107bd601e83610776565b91506107c882610787565b602082019050919050565b600060208201905081810360008301526107ec816107b0565b9050919050565b6107fc816103db565b82525050565b61080b81610472565b82525050565b600060408201905061082660008301856107f3565b6108336020830184610802565b939250505056fea264697066735822122090b50322ca53c0df6ced803085018b4b13efced3031cad9bc27fcb6adae2164964736f6c634300080e0033",
  "linkReferences": {},
  "deployedLinkReferences": {}
}