{
  "_format": "hh-sol-artifact-1",
  "contractName": "FileMinter",
  "sourceName": "contracts/FileMinter.sol",
  "abi": [
    {
      "anonymous": false,
      "inputs": [
        {
          "indexed": false,
          "internalType": "address",
          "name": "walletAddress",
          "type": "address"
        },
        {
          "indexed": false,
          "internalType": "bytes32",
          "name": "fileHash",
          "type": "bytes32"
        }
      ],
      "name": "mintSuccessful",
      "type": "event"
    },
    {
      "inputs": [],
      "name": "isConnectionExtablished",
      "outputs": [
        {
          "internalType": "bool",
          "name": "",
          "type": "bool"
        }
      ],
      "stateMutability": "pure",
      "type": "function"
    },
    {
      "inputs": [
        {
          "internalType": "address",
          "name": "walletAddress",
          "type": "address"
        },
        {
          "internalType": "bytes32",
          "name": "fileHash",
          "type": "bytes32"
        }
      ],
      "name": "mintFile",
      "outputs": [],
      "stateMutability": "nonpayable",
      "type": "function"
    },
    {
      "inputs": [
        {
          "internalType": "address",
          "name": "walletAddress",
          "type": "address"
        }
      ],
      "name": "myMintFiles",
      "outputs": [
        {
          "internalType": "bytes32[]",
          "name": "",
          "type": "bytes32[]"
        }
      ],
      "stateMutability": "view",
      "type": "function"
    }
  ],
  "bytecode": "0x608060405234801561001057600080fd5b506106e0806100206000396000f3fe608060405234801561001057600080fd5b50600436106100415760003560e01c80630766623814610046578063c83db51414610076578063fe6f80e414610094575b600080fd5b610060600480360381019061005b919061042d565b6100b0565b60405161006d9190610522565b60405180910390f35b61007e61014d565b60405161008b919061055f565b60405180910390f35b6100ae60048036038101906100a991906105a6565b610156565b005b60606000600160008473ffffffffffffffffffffffffffffffffffffffff1673ffffffffffffffffffffffffffffffffffffffff16815260200190815260200160002090508080548060200260200160405190810160405280929190818152602001828054801561014057602002820191906000526020600020905b81548152602001906001019080831161012c575b5050505050915050919050565b60006001905090565b60008082815260200190815260200160002060000160149054906101000a900460ff16156101b9576040517f08c379a00000000000000000000000000000000000000000000000000000000081526004016101b090610643565b60405180910390fd5b60405180604001604052808373ffffffffffffffffffffffffffffffffffffffff1681526020016001151581525060008083815260200190815260200160002060008201518160000160006101000a81548173ffffffffffffffffffffffffffffffffffffffff021916908373ffffffffffffffffffffffffffffffffffffffff16021790555060208201518160000160146101000a81548160ff0219169083151502179055509050506000600160008473ffffffffffffffffffffffffffffffffffffffff1673ffffffffffffffffffffffffffffffffffffffff16815260200190815260200160002090508082908060018154018082558091505060019003906000526020600020016000909190919091505580600160008573ffffffffffffffffffffffffffffffffffffffff1673ffffffffffffffffffffffffffffffffffffffff16815260200190815260200160002090805461031c92919061035b565b507f058353ccf7c2389d699817bc9ea3d39cd8e61983344dc45ad11bbe97eeb7e4b2838360405161034e929190610681565b60405180910390a1505050565b82805482825590600052602060002090810192821561039c5760005260206000209182015b8281111561039b578254825591600101919060010190610380565b5b5090506103a991906103ad565b5090565b5b808211156103c65760008160009055506001016103ae565b5090565b600080fd5b600073ffffffffffffffffffffffffffffffffffffffff82169050919050565b60006103fa826103cf565b9050919050565b61040a816103ef565b811461041557600080fd5b50565b60008135905061042781610401565b92915050565b600060208284031215610443576104426103ca565b5b600061045184828501610418565b91505092915050565b600081519050919050565b600082825260208201905092915050565b6000819050602082019050919050565b6000819050919050565b61049981610486565b82525050565b60006104ab8383610490565b60208301905092915050565b6000602082019050919050565b60006104cf8261045a565b6104d98185610465565b93506104e483610476565b8060005b838110156105155781516104fc888261049f565b9750610507836104b7565b9250506001810190506104e8565b5085935050505092915050565b6000602082019050818103600083015261053c81846104c4565b905092915050565b60008115159050919050565b61055981610544565b82525050565b60006020820190506105746000830184610550565b92915050565b61058381610486565b811461058e57600080fd5b50565b6000813590506105a08161057a565b92915050565b600080604083850312156105bd576105bc6103ca565b5b60006105cb85828601610418565b92505060206105dc85828601610591565b9150509250929050565b600082825260208201905092915050565b7f46696c6520416c7265616479204d696e74656420746f20536f6d656f6e650000600082015250565b600061062d601e836105e6565b9150610638826105f7565b602082019050919050565b6000602082019050818103600083015261065c81610620565b9050919050565b61066c816103ef565b82525050565b61067b81610486565b82525050565b60006040820190506106966000830185610663565b6106a36020830184610672565b939250505056fea2646970667358221220ab64de5fe339b37b11e7909a2cd934f80e05851cfdae45031105dd5b4b8385a664736f6c634300080e0033",
  "linkReferences": {},
  "deployedLinkReferences": {}
}