{
  "_format": "hh-sol-artifact-1",
  "contractName": "FileMinter",
  "sourceName": "contracts/FileMinter.sol",
  "abi": [
    {
      "anonymous": false,
      "inputs": [
        {
          "indexed": false,
          "internalType": "address",
          "name": "walletAddress",
          "type": "address"
        },
        {
          "indexed": false,
          "internalType": "bytes32",
          "name": "fileHash",
          "type": "bytes32"
        },
        {
          "indexed": false,
          "internalType": "string",
          "name": "fileName",
          "type": "string"
        }
      ],
      "name": "mintSuccessful",
      "type": "event"
    },
    {
      "inputs": [
        {
          "internalType": "address",
          "name": "walletAddress",
          "type": "address"
        },
        {
          "internalType": "bytes32",
          "name": "fileHash",
          "type": "bytes32"
        },
        {
          "internalType": "string",
          "name": "fileName",
          "type": "string"
        }
      ],
      "name": "mintFile",
      "outputs": [],
      "stateMutability": "nonpayable",
      "type": "function"
    },
    {
      "inputs": [
        {
          "internalType": "address",
          "name": "walletAddress",
          "type": "address"
        }
      ],
      "name": "myMintFiles",
      "outputs": [
        {
          "internalType": "bytes32[]",
          "name": "",
          "type": "bytes32[]"
        }
      ],
      "stateMutability": "view",
      "type": "function"
    }
  ],
  "bytecode": "0x608060405234801561001057600080fd5b506109b1806100206000396000f3fe608060405234801561001057600080fd5b50600436106100365760003560e01c8063076662381461003b578063c23337ab1461006b575b600080fd5b610055600480360381019061005091906104d3565b610087565b60405161006291906105c8565b60405180910390f35b6100856004803603810190610080919061075c565b610124565b005b60606000600160008473ffffffffffffffffffffffffffffffffffffffff1673ffffffffffffffffffffffffffffffffffffffff16815260200190815260200160002090508080548060200260200160405190810160405280929190818152602001828054801561011757602002820191906000526020600020905b815481526020019060010190808311610103575b5050505050915050919050565b60008083815260200190815260200160002060020160009054906101000a900460ff1615610187576040517f08c379a000000000000000000000000000000000000000000000000000000000815260040161017e90610828565b60405180910390fd5b60405180606001604052808473ffffffffffffffffffffffffffffffffffffffff1681526020018281526020016001151581525060008084815260200190815260200160002060008201518160000160006101000a81548173ffffffffffffffffffffffffffffffffffffffff021916908373ffffffffffffffffffffffffffffffffffffffff160217905550602082015181600101908051906020019061023092919061034f565b5060408201518160020160006101000a81548160ff0219169083151502179055509050506000600160008573ffffffffffffffffffffffffffffffffffffffff1673ffffffffffffffffffffffffffffffffffffffff16815260200190815260200160002090508083908060018154018082558091505060019003906000526020600020016000909190919091505580600160008673ffffffffffffffffffffffffffffffffffffffff1673ffffffffffffffffffffffffffffffffffffffff16815260200190815260200160002090805461030d9291906103d5565b507f4ca47d5a3d35cf5b1afda3ee2fb35c5da1dac589078a9bdd7cd043010d68a86e848484604051610341939291906108dd565b60405180910390a150505050565b82805461035b9061094a565b90600052602060002090601f01602090048101928261037d57600085556103c4565b82601f1061039657805160ff19168380011785556103c4565b828001600101855582156103c4579182015b828111156103c35782518255916020019190600101906103a8565b5b5090506103d19190610427565b5090565b8280548282559060005260206000209081019282156104165760005260206000209182015b828111156104155782548255916001019190600101906103fa565b5b5090506104239190610444565b5090565b5b80821115610440576000816000905550600101610428565b5090565b5b8082111561045d576000816000905550600101610445565b5090565b6000604051905090565b600080fd5b600080fd5b600073ffffffffffffffffffffffffffffffffffffffff82169050919050565b60006104a082610475565b9050919050565b6104b081610495565b81146104bb57600080fd5b50565b6000813590506104cd816104a7565b92915050565b6000602082840312156104e9576104e861046b565b5b60006104f7848285016104be565b91505092915050565b600081519050919050565b600082825260208201905092915050565b6000819050602082019050919050565b6000819050919050565b61053f8161052c565b82525050565b60006105518383610536565b60208301905092915050565b6000602082019050919050565b600061057582610500565b61057f818561050b565b935061058a8361051c565b8060005b838110156105bb5781516105a28882610545565b97506105ad8361055d565b92505060018101905061058e565b5085935050505092915050565b600060208201905081810360008301526105e2818461056a565b905092915050565b6105f38161052c565b81146105fe57600080fd5b50565b600081359050610610816105ea565b92915050565b600080fd5b600080fd5b6000601f19601f8301169050919050565b7f4e487b7100000000000000000000000000000000000000000000000000000000600052604160045260246000fd5b61066982610620565b810181811067ffffffffffffffff8211171561068857610687610631565b5b80604052505050565b600061069b610461565b90506106a78282610660565b919050565b600067ffffffffffffffff8211156106c7576106c6610631565b5b6106d082610620565b9050602081019050919050565b82818337600083830152505050565b60006106ff6106fa846106ac565b610691565b90508281526020810184848401111561071b5761071a61061b565b5b6107268482856106dd565b509392505050565b600082601f83011261074357610742610616565b5b81356107538482602086016106ec565b91505092915050565b6000806000606084860312156107755761077461046b565b5b6000610783868287016104be565b935050602061079486828701610601565b925050604084013567ffffffffffffffff8111156107b5576107b4610470565b5b6107c18682870161072e565b9150509250925092565b600082825260208201905092915050565b7f46696c6520416c7265616479204d696e74656420746f20536f6d656f6e650000600082015250565b6000610812601e836107cb565b915061081d826107dc565b602082019050919050565b6000602082019050818103600083015261084181610805565b9050919050565b61085181610495565b82525050565b6108608161052c565b82525050565b600081519050919050565b60005b8381101561088f578082015181840152602081019050610874565b8381111561089e576000848401525b50505050565b60006108af82610866565b6108b981856107cb565b93506108c9818560208601610871565b6108d281610620565b840191505092915050565b60006060820190506108f26000830186610848565b6108ff6020830185610857565b818103604083015261091181846108a4565b9050949350505050565b7f4e487b7100000000000000000000000000000000000000000000000000000000600052602260045260246000fd5b6000600282049050600182168061096257607f821691505b6020821081036109755761097461091b565b5b5091905056fea26469706673582212201e6d90d349ca8c5841a92ae89f512db77d5f2eabeb8e1c93b0121b16517647ef64736f6c634300080e0033",
  "linkReferences": {},
  "deployedLinkReferences": {}
}